:100000000C9434000C9451000C9451000C94510049
:100010000C9451000C9451000C9451000C9451001C
:100020000C9451000C9451000C9451000C94A500B8
:100030000C9451000C9451000C9451000C945100FC
:100040000C9451000C9451000C948A010C945100B2
:100050000C9451000C9451000C9451000C945100DC
:100060000C9451000C94510011241FBECFEFD8E026
:10007000DEBFCDBF11E0A0E0B1E0E2E3F4E002C0FA
:1000800005900D92A630B107D9F721E0A6E0B1E0C6
:1000900001C01D92AA32B207E1F70E9479010C94C7
:1000A00017020C94000097E0899FF0011124E95F8A
:1000B000FE4F1182108213821282158214821682E0
:1000C00080E00895FF920F931F93CF93DF93CDE0CD
:1000D000D1E007E011E0F12C8881882389F0D80174
:1000E000ED91FC91309761F009958881815088836A
:1000F000F80124813581232B19F48F2D0E945300A0
:10010000F3942796095F1F4FF5E0FF12E5CFDF91CB
:10011000CF911F910F91FF900895CF93C0E08C2F46
:100120000E945300CF5FC530D1F781E792E09093F2
:100130008900809388008CE08093810082E0809326
:100140006F00CF910895789408951F920F920FB683
:100150000F9211248F939F93AF93BF93EF93FF93CD
:10016000E7E0F1E0ADE0B1E080819181892B71F0B1
:1001700082819381009739F48C918F5F8C93848175
:100180009581009719F0019793838283379617968C
:1001900081E0EA32F80741F7FF91EF91BF91AF910B
:1001A0009F918F910F900FBE0F901F9018951092F6
:1001B000C50083E38093C4001092C00086E0809362
:1001C000C20088E18093C10008959091C00095FF1E
:1001D000FCCF8093C6000895CF93C82F892F0E942B
:1001E000E5008C2FCF910C94E5008091C00087FF33
:1001F000FCCF8091C6000895EAE7F0E08081876037
:100200008083ACE7B0E08C9180648C9380818068BF
:100210008083808180648083089590917C00907FAA
:1002200090937C0090917C00892B80937C0080913E
:100230007A00806480937A0080917A0086FDFCCFFA
:100240008091780090917900089581E00E940D01DD
:100250000C94E500809104010C94E50080E00E947C
:100260000D010C94EC0080910201909103010C941B
:10027000EC00809101010C94E500809100010C9448
:10028000E500809106010C94E5000E94F500809342
:100290000401811103C082E00C94E5008CE0FCCFE6
:1002A000CF930E94F500C82F0E94F5002C2F30E05C
:1002B000322F2227282B30930301209302018CE058
:1002C000CF910C94E5000E94F5008093010181110B
:1002D00003C082E00C94E5008CE0FCCF0E94F500A6
:1002E00080930001811103C082E00C94E5008CE052
:1002F000FCCF0E94D7000E94FC000E948D000E944B
:10030000A3008091C10080688093C10078940E940E
:100310006200FDCF1F920F920FB60F9211242F9300
:100320003F934F935F936F937F938F939F93AF937D
:10033000BF93EF93FF930E94F50090E0FC01759747
:10034000EA31F10518F5E955FE4F0C941102C1018F
:10035000D701DD01E301E901EF01F501C601C601A5
:10036000C601C601C601C601C601C601C601C60155
:10037000C601C601C601FB01FE010102040207021B
:100380000D028CE00E94E5000E942501FF91EF9193
:10039000BF91AF919F918F917F916F915F914F919D
:1003A0003F912F910F900FBE0F901F9018958CE0EA
:1003B0000E94E5000E942A01E9CF8DE00E94E5003D
:1003C0000E942E01E3CF8DE00E94E5000E943301E0
:1003D000DDCF8CE00E94E5000E943901D7CF8CE090
:1003E0000E94E5000E943D01D1CF8CE00E94E50013
:1003F0000E944101CBCF0E944501C8CF0E9450010D
:10040000C5CF0E946301C2CF0E946E01BFCF109280
:1004100006018CE00E94E500B9CF81E080930601DF
:10042000F8CFEE0FFF1F0590F491E02D0994F8949A
:02043000FFCFFC
:0604320005C82C01A90021
:00000001FF
