:100000000C9434000C9451000C9451000C94510049
:100010000C9451000C9451000C9451000C9451001C
:100020000C9451000C9451000C9451000C94A500B8
:100030000C9451000C9451000C9451000C945100FC
:100040000C9451000C9451000C9456010C945100E6
:100050000C9451000C9451000C9451000C945100DC
:100060000C9451000C94510011241FBECFEFD8E026
:10007000DEBFCDBF11E0A0E0B1E0E8E7F3E002C0F1
:1000800005900D92A630B107D9F721E0A6E0B1E0C6
:1000900001C01D92AA32B207E1F70E9445010C94FB
:1000A000BA010C94000097E0899FF0011124E95FE8
:1000B000FE4F1182108213821282158214821682E0
:1000C00080E00895FF920F931F93CF93DF93CDE0CD
:1000D000D1E007E011E0F12C8881882389F0D80174
:1000E000ED91FC91309761F009958881815088836A
:1000F000F80124813581232B19F48F2D0E945300A0
:10010000F3942796095F1F4FF5E0FF12E5CFDF91CB
:10011000CF911F910F91FF900895CF93C0E08C2F46
:100120000E945300CF5FC530D1F781E792E09093F2
:100130008900809388008CE08093810082E0809326
:100140006F00CF910895789408951F920F920FB683
:100150000F9211248F939F93AF93BF93EF93FF93CD
:10016000E7E0F1E0ADE0B1E080819181892B71F0B1
:1001700082819381009739F48C918F5F8C93848175
:100180009581009719F0019793838283379617968C
:1001900081E0EA32F80741F7FF91EF91BF91AF910B
:1001A0009F918F910F900FBE0F901F9018951092F6
:1001B000C50083E38093C4001092C00086E0809362
:1001C000C20088E18093C10008959091C00095FF1E
:1001D000FCCF8093C6000895CF93C82F892F0E942B
:1001E000E5008C2FCF910C94E5008091C00087FF33
:1001F000FCCF8091C6000895EAE7F0E08081876037
:100200008083ACE7B0E08C9180648C9380818068BF
:100210008083808180648083089590917C00907FAA
:1002200090937C0090917C00892B80937C0080913E
:100230007A00806480937A0080917A0086FDFCCFFA
:100240008091780090917900089581E00E940D01DD
:100250000C94E500809104010C94E50080E00E947C
:100260000D010C94EC0080910201909103010C941B
:10027000EC00809101010C94E500809100010C9448
:10028000E500809106010C94E5000E94D7000E94D1
:10029000FC000E948D000E94A3008091C100806834
:1002A0008093C10078940E946200FDCF1F920F924C
:1002B0000FB60F9211242F933F934F935F936F9339
:1002C0007F938F939F93AF93BF93EF93FF930E947E
:1002D000F50090E0FC017597E730F10580F4ED58EA
:1002E000FE4F0C94B4017A01900196019C01A20189
:1002F000A801AE018CE00E94E5000E942501FF915B
:10030000EF91BF91AF919F918F917F916F915F918D
:100310004F913F912F910F900FBE0F901F90189506
:100320008CE00E94E5000E942A01E9CF8DE00E9446
:10033000E5000E942E01E3CF8DE00E94E5000E94BF
:100340003301DDCF8CE00E94E5000E943901D7CF58
:100350008CE00E94E5000E943D01D1CF8CE00E941C
:10036000E5000E944101CBCFEE0FFF1F0590F491F5
:08037000E02D0994F894FFCF81
:0603780005C82C01A900DC
:00000001FF
