:100000000C9434000C9451000C945A020C9451003E
:100010000C9451000C9451000C9451000C9451001C
:100020000C9451000C9451000C9451000C94BD00A0
:100030000C9451000C9451000C9451000C945100FC
:100040000C9451000C9451000C947B020C945100C0
:100050000C9451000C9451000C9451000C945100DC
:100060000C9451000C94510011241FBECFEFD8E026
:10007000DEBFCDBF11E0A0E0B1E0EAE4F6E002C0EF
:1000800005900D92A630B107D9F721E0A6E0B1E0C6
:1000900001C01D92A133B207E1F70E9422020C9425
:1000A00023030C940000A0E0B7E0BA9FF0011124F4
:1000B000E75FFE4F20813181232B11F0AF5FF5CF39
:1000C000A53039F0918380837383628355834483A1
:1000D00016828A2F089597E0899FF0011124E75F27
:1000E000FE4F1182108213821282158214821682B0
:1000F00080E00895FF920F931F93CF93DF93CFE09B
:10010000D1E009E011E0F12C8881882389F0D80141
:10011000ED91FC91309761F0099588818150888339
:10012000F80124813581232B19F48F2D0E946B0057
:10013000F3942796095F1F4FF5E0FF12E5CFDF919B
:10014000CF911F910F91FF900895CF93C0E08C2F16
:100150000E946B00CF5FC530D1F781E792E09093AA
:100160008900809388008CE08093810082E08093F6
:100170006F00CF910895789408951F920F920FB653
:100180000F9211248F939F93AF93BF93EF93FF939D
:10019000E9E0F1E0AFE0B1E080819181892B71F07D
:1001A00082819381009739F48C918F5F8C93848145
:1001B0009581009719F0019793838283379617965C
:1001C00081E0EC32F80741F7FF91EF91BF91AF91D9
:1001D0009F918F910F900FBE0F901F90189581E007
:1001E00080932C015A9A20E42A95F1F75A988FEFC0
:1001F00099EF20E0815090402040E1F700C00000DE
:1002000080912D0190912E0190930701809306011A
:100210008FE39CE90197F1F700C000000895109268
:10022000C50083E38093C4001092C00086E08093F1
:10023000C20088E18093C10008959091C00095FFAD
:10024000FCCF8093C6000895CF93C82F892F0E94BA
:100250001D018C2FCF910C941D018091C00087FF50
:10026000FCCF8091C6000895EAE7F0E080818760C6
:100270008083ACE7B0E08C9180648C93808180684F
:10028000808380818064808308958FEF84B915B85E
:100290005398529A1BB88AE08A95F1F700C00895E6
:1002A0001092800081E080938100089584E0809323
:1002B000690082E08DBB089590917C00907F9093BF
:1002C0007C0090917C00892B80937C0080917A0047
:1002D000806480937A0080917A0086FDFCCF8091C3
:1002E000780090917900089581E00E945C010C945F
:1002F0001D01809105010C941D0180E00E945C01AC
:100300000C94240180910301909104010C94240128
:10031000809102010C941D01809101010C941D013A
:10032000809100010C941D010E942D018093050114
:10033000811103C082E00C941D018CE0FCCFCF93AF
:100340000E942D01C82F0E942D012C2F30E0322F4A
:100350002227282B30930401209303018CE0CF91B6
:100360000C941D010E942D0180930201811103C094
:1003700082E00C941D018CE0FCCF0E942D01809343
:100380000101811103C082E00C941D018CE0FCCFBF
:10039000289A0895299A08958091020115B881112B
:1003A00009C08091000181111BC081E08093000190
:1003B0000C94C8012A9A2FEF39E698E12150304079
:1003C0009040E1F700C0000015B82FEF39E698E142
:1003D000215030409040E1F700C000008A50DFCF4C
:1003E000109200010C94CA018091080181110FC084
:1003F0000E945C0120910301309104018217930750
:1004000030F080910001813011F40C94CC010895FA
:100410008091080181110FC081E00E945C01209150
:10042000050130E08217930730F0809100018130A0
:1004300011F40C94CC01089580910601909107016C
:100440000C9424010E940F010E9434010E94450176
:100450000E9456010E9450010E94A5000E94BB000C
:1004600080910001813019F50E94C8018091C1007E
:1004700080688093C1004AE050E060E070E088E06E
:1004800092E00E9453004AE050E060E070E084EFA8
:1004900091E00E94530042E350E060E070E08FEE94
:1004A00090E00E94530078940E947A00FDCF0E9451
:1004B000CA01DCCF1F920F920FB60F9211248F93B7
:1004C0009F9380912C01813069F4109285001092E5
:1004D000840010922C019F918F910F900FBE0F906E
:1004E0001F901895809184009091850090932E0123
:1004F00080932D01F0CF1F920F920FB60F9211240F
:100500002F933F934F935F936F937F938F939F931B
:10051000AF93BF93EF93FF930E942D0190E0FC01F6
:100520007597EE31F10508F027C0E756FD4F0C94A2
:100530001D03B702CD02D302D902DF02E502EB02AE
:10054000F102BC02BC02BC02BC02BC02BC02BC0286
:10055000BC02BC02BC02BC02BC02F702FA02FD02F1
:10056000000303030C0313031703BC021A038CE0FC
:100570000E941D010E947401FF91EF91BF91AF9104
:100580009F918F917F916F915F914F913F912F91AB
:100590000F900FBE0F901F9018958CE00E941D01C8
:1005A0000E947901E9CF8DE00E941D010E947D012A
:1005B000E3CF8DE00E941D010E948201DDCF8CE01F
:1005C0000E941D010E948801D7CF8CE00E941D016E
:1005D0000E948C01D1CF8CE00E941D010E949001ED
:1005E000CBCF8DE00E941D010E941C02C5CF0E944E
:1005F0009401C2CF0E949F01BFCF0E94B201BCCF25
:100600000E94BD01B9CF1092000115B80E94CA0125
:100610008BE00E941D01B0CF81E08093000115B8EE
:100620000E94C801F5CF81E080930801F1CF1092BC
:100630000801EECF0E94CC01EBCFEE0FFF1F05901B
:0A064000F491E02D0994F894FFCF27
:06064A00010564F401AE9D
:00000001FF
