:100000000C9452000C946F000C9478020C946F00C6
:100010000C946F000C946F000C946F000C946F00A4
:100020000C946F000C946F000C946F000C94DB0028
:100030000C946F000C946F000C946F000C946F0084
:100040000C946F000C946F000C9499020C946F0048
:100050000C946F000C946F000C946F000C946F0064
:100060000C946F000C946F00B702BD02C302C9026A
:10007000CF02D502DB02E1020C030C030C030C03DC
:100080000C030C030C030C030C030C030C030C03F8
:10009000E702EA02ED02F002F302F90200030403B0
:1000A0000C03070311241FBECFEFD8E0DEBFCDBF86
:1000B00011E0A0E0B1E0EAE4F6E002C005900D92A4
:1000C000A630B107D9F721E0A6E0B1E001C01D924A
:1000D000A133B207E1F70E9440020C9423030C9471
:1000E0000000A0E0B7E0BA9FF0011124E75FFE4FE7
:1000F00020813181232B11F0AF5FF5CFA53039F08E
:1001000091838083738362835583448316828A2F0D
:10011000089597E0899FF0011124E75FFE4F118257
:1001200010821382128215821482168280E0089552
:10013000FF920F931F93CF93DF93CFE0D1E009E0BD
:1001400011E0F12C8881882389F0D801ED91FC9190
:10015000309761F00995888181508883F801248166
:100160003581232B19F48F2D0E948900F394279653
:10017000095F1F4FF5E0FF12E5CFDF91CF911F918F
:100180000F91FF900895CF93C0E08C2F0E948900BB
:10019000CF5FC530D1F781E792E0909389008093DB
:1001A00088008CE08093810082E080936F00CF9183
:1001B0000895789408951F920F920FB60F9211240C
:1001C0008F939F93AF93BF93EF93FF93E9E0F1E099
:1001D000AFE0B1E080819181892B71F082819381C0
:1001E000009739F48C918F5F8C938481958100976F
:1001F00019F00197938382833796179681E0EC324A
:10020000F80741F7FF91EF91BF91AF919F918F91C7
:100210000F900FBE0F901F90189581E080932C01D6
:100220005A9A20E42A95F1F75A988FEF99EF20E037
:10023000815090402040E1F700C0000080912D01E6
:1002400090912E0190930701809306018FE39CE922
:100250000197F1F700C0000008951092C50083E3F4
:100260008093C4001092C00086E08093C20088E1B1
:100270008093C10008959091C00095FFFCCF8093BA
:10028000C6000895CF93C82F892F0E943B018C2F61
:10029000CF910C943B018091C00087FFFCCF8091EF
:1002A000C6000895EAE7F0E0808187608083ACE7CC
:1002B000B0E08C9180648C938081806880838081A1
:1002C0008064808308958FEF84B915B85398529A4B
:1002D0001BB88AE08A95F1F700C00895109280005B
:1002E00081E080938100089584E08093690082E03A
:1002F0008DBB089590917C00907F90937C009091AD
:100300007C00982B90937C0080917A00806480938D
:100310007A0080917A0086FDFCCF809178009091E0
:100320007900089581E00E947A010C943B0180914C
:1003300005010C943B0180E00E947A010C9442017B
:1003400080910301909104010C944201809102017B
:100350000C943B01809101010C943B0180910001C0
:100360000C943B010E944B0180930501811102C056
:1003700082E001C08CE00C943B01CF930E944B01C2
:10038000C82F0E944B012C2F30E0322F2227282B20
:1003900030930401209303018CE0CF910C943B0136
:1003A0000E944B0180930201811102C082E001C0D2
:1003B0008CE00C943B010E944B0180930101811160
:1003C00002C082E001C08CE00C943B01289A0895A1
:1003D000299A08958091020115B88823B1F02A9ACC
:1003E0002FEF39E698E1215030409040E1F700C00E
:1003F000000015B82FEF39E698E1215030409040C9
:10040000E1F700C000008A50E8CF8091000181111F
:1004100005C081E0809300010C94E6011092000178
:100420000C94E8018091080181110FC081E00E94C5
:100430007A012091050130E08217930730F0809116
:100440000001813011F40C94EA01089580910801B3
:1004500081110FC00E947A012091030130910401A3
:100460008217930730F080910001813011F40C94D1
:10047000EA01089580910601909107010C944201D0
:100480000E942D010E9452010E9463010E9474018A
:100490000E946E010E94C3000E94D9008091000159
:1004A000813019F40E94E60102C00E94E8018091A7
:1004B000C10080688093C1004AE050E060E070E0D5
:1004C00082E192E00E9471004AE050E060E070E05A
:1004D00086E292E00E94710042E350E060E070E04A
:1004E0008DE091E00E94710078940E949800FDCF09
:1004F0001F920F920FB60F9211248F939F938091AA
:100500002C01813039F410928500109284001092F1
:100510002C0108C0809184009091850090932E0159
:1005200080932D019F918F910F900FBE0F901F9080
:1005300018951F920F920FB60F9211242F933F938D
:100540004F935F936F937F938F939F93AF93BF93DB
:10055000EF93FF930E944B0190E0FC017597EE3101
:10056000F10508F059C0EC5CFF4F0C941D038CE0C2
:100570000E943B010E9492014FC08CE00E943B010F
:100580000E94970149C08DE00E943B010E949B019F
:1005900043C08DE00E943B010E94A0013DC08CE061
:1005A0000E943B010E94A60137C08CE00E943B01E3
:1005B0000E94AA0131C08CE00E943B010E94AE0162
:1005C0002BC08DE00E943B010E943A0225C00E9490
:1005D000B20122C00E94BD011FC00E94D0011CC0F8
:1005E0000E94DB0119C01092000115B80E94E801B9
:1005F00010C081E08093000115B80E94E60109C097
:1006000081E08093080105C01092080102C00E9499
:10061000EA018BE00E943B01FF91EF91BF91AF9106
:100620009F918F917F916F915F914F913F912F910A
:100630000F900FBE0F901F901895EE0FFF1F0590A3
:0A064000F491E02D0994F894FFCF27
:06064A000105645802AE38
:00000001FF
