:100000000C9434000C9451000C9451000C94510049
:100010000C9451000C9451000C9451000C9451001C
:100020000C9451000C9451000C9451000C94BD00A0
:100030000C9451000C9451000C9451000C945100FC
:100040000C9451000C9451000C940E020C9451002D
:100050000C9451000C9451000C9451000C945100DC
:100060000C9451000C94510011241FBECFEFD8E026
:10007000DEBFCDBF11E0A0E0B1E0E4E6F5E002C0F4
:1000800005900D92A630B107D9F721E0A6E0B1E0C6
:1000900001C01D92AA32B207E1F70E94E2010C945E
:1000A000B0020C940000A0E0B7E0BA9FF001112468
:1000B000E95FFE4F20813181232B11F0AF5FF5CF37
:1000C000A53039F0918380837383628355834483A1
:1000D00016828A2F089597E0899FF0011124E95F25
:1000E000FE4F1182108213821282158214821682B0
:1000F00080E00895FF920F931F93CF93DF93CDE09D
:10010000D1E007E011E0F12C8881882389F0D80143
:10011000ED91FC91309761F0099588818150888339
:10012000F80124813581232B19F48F2D0E946B0057
:10013000F3942796095F1F4FF5E0FF12E5CFDF919B
:10014000CF911F910F91FF900895CF93C0E08C2F16
:100150000E946B00CF5FC530D1F781E792E09093AA
:100160008900809388008CE08093810082E08093F6
:100170006F00CF910895789408951F920F920FB653
:100180000F9211248F939F93AF93BF93EF93FF939D
:10019000E7E0F1E0ADE0B1E080819181892B71F081
:1001A00082819381009739F48C918F5F8C93848145
:1001B0009581009719F0019793838283379617965C
:1001C00081E0EA32F80741F7FF91EF91BF91AF91DB
:1001D0009F918F910F900FBE0F901F9018951092C6
:1001E000C50083E38093C4001092C00086E0809332
:1001F000C20088E18093C10008959091C00095FFEE
:10020000FCCF8093C6000895CF93C82F892F0E94FA
:10021000FD008C2FCF910C94FD008091C00087FFD2
:10022000FCCF8091C6000895EAE7F0E08081876006
:100230008083ACE7B0E08C9180648C93808180688F
:10024000808380818064808308958FEF8AB91BB892
:10025000089590917C00907F90937C0090917C0019
:10026000892B80937C0080917A00806480937A004F
:1002700080917A0086FDFCCF809178009091790082
:10028000089581E00E9429010C94FD0080910501F0
:100290000C94FD0080E00E9429010C9404018091DF
:1002A0000301909104010C940401809102010C94CB
:1002B000FD00809101010C94FD00809100010C94DF
:1002C000FD000E940D0180930501811103C082E0B1
:1002D0000C94FD008CE0FCCFCF930E940D01C82F41
:1002E0000E940D012C2F30E0322F2227282B309333
:1002F0000401209303018CE0CF910C94FD000E9437
:100300000D0180930201811103C082E00C94FD0075
:100310008CE0FCCF0E940D0180930101811103C08C
:1003200082E00C94FD008CE0FCCF5A9A08955B9A11
:100330000895809102011BB8811109C080910001CC
:1003400081111BC081E0809300010C9495015C9A9F
:100350002FEF39E698E1215030409040E1F700C09E
:1003600000001BB82FEF39E698E121503040904053
:10037000E1F700C000008A50DFCF109200010C941A
:10038000970180E00E94290120910301309104012E
:100390008217930730F080910001813011F40C94A2
:1003A0009901089581E00E9429012091050130E022
:1003B0008217930730F080910001813011F40C9482
:1003C000990108950E94EF000E9414010E942501E6
:1003D0000E94A5000E94BB00809100018130D9F4E9
:1003E0000E9495018091C10080688093C1004AE01D
:1003F00050E060E070E082ED91E00E9453004AE03E
:1004000050E060E070E081EC91E00E94530078944D
:100410000E947A00FDCF0E949701E4CF1F920F92B5
:100420000FB60F9211242F933F934F935F936F93C7
:100430007F938F939F93AF93BF93EF93FF930E940C
:100440000D0190E0FC017597EE31F10508F027C031
:10045000E45DFD4F0C94AA024A02600266026C023F
:10046000720278027E024F024F024F024F024F0289
:100470004F024F024F024F024F024F024F024F02F4
:10048000840287028A028D0290029902A002A402CD
:100490004F02A7028CE00E94FD000E944101FF91E3
:1004A000EF91BF91AF919F918F917F916F915F91EC
:1004B0004F913F912F910F900FBE0F901F90189565
:1004C0008CE00E94FD000E944601E9CF8DE00E9471
:1004D000FD000E944A01E3CF8DE00E94FD000E94D2
:1004E0004F01DDCF8CE00E94FD000E945501D7CF67
:1004F0008CE00E94FD000E945901D1CF8CE00E9447
:10050000FD000E945D01CBCF0E946101C8CF0E9417
:100510006C01C5CF0E947F01C2CF0E948A01BFCF6C
:10052000109200011BB80E9497018CE00E94FD0010
:10053000B6CF81E0809300011BB80E949501F5CFF2
:1005400081E080930601F1CF10920601EECF0E9468
:100550009901A5CFEE0FFF1F0590F491E02D0994AE
:04056000F894FFCF3D
:060564000105642C01AE4C
:00000001FF
