:100000000C9434000C9446000C9446000C9446006A
:100010000C9446000C9446000C9446000C94460048
:100020000C9446000C9446000C9446000C949A00E4
:100030000C9446000C9446000C9446000C94460028
:100040000C9446000C9446000C9427010C94460036
:100050000C9446000C9446000C9446000C94460008
:100060000C9446000C94460011241FBECFEFD8E03C
:10007000DEBFCDBF21E0A0E0B1E001C01D92A33200
:10008000B207E1F70E9416010C9458010C9400008D
:1000900097E0899FF0011124E050FF4F11821082F8
:1000A0001382128215821482168280E00895FF92D4
:1000B0000F931F93CF93DF93C6E0D1E000E011E0F0
:1000C000F12C8881882389F0D801ED91FC9130973B
:1000D00061F00995888181508883F80124813581F8
:1000E000232B19F48F2D0E944800F3942796095F63
:1000F0001F4FF5E0FF12E5CFDF91CF911F910F91D8
:10010000FF900895CF93C0E08C2F0E944800CF5FEE
:10011000C530D1F781E792E0909389008093880001
:100120008CE08093810082E080936F00CF910895EE
:10013000789408951F920F920FB60F9211248F9307
:100140009F93AF93BF93EF93FF93E0E0F1E0A6E0BE
:10015000B1E080819181892B71F082819381009738
:1001600039F48C918F5F8C9384819581009719F07D
:100170000197938382833796179681E0E332F807DD
:1001800041F7FF91EF91BF91AF919F918F910F90A8
:100190000FBE0F901F9018951092C50083E38093B7
:1001A000C4001092C00086E08093C20088E1809372
:1001B000C10008959091C00095FFFCCF8093C600C8
:1001C00008958091C00087FFFCCF8091C6000895FC
:1001D000EAE7F0E0808187608083ACE7B0E08C9153
:1001E00080648C9380818068808380818064808338
:1001F000089590917C00907F90937C0090917C007A
:10020000982B90937C0080917A00806480937A0090
:1002100080917A0086FDFCCF8091780090917900E2
:10022000089581E00E94F9000C94DA000E94CC004D
:100230000E94E8000E9482000E9498008091C10004
:1002400080688093C10078940E945700FDCF1F9270
:100250000F920FB60F9211242F933F934F935F93FA
:100260006F937F938F939F93AF93BF93EF93FF937E
:100270000E94E100853131F0863149F483E00E942B
:10028000DA0005C08CE00E94DA000E941101FF91A3
:10029000EF91BF91AF919F918F917F916F915F91FE
:1002A0004F913F912F910F900FBE0F901F90189577
:0402B000F894FFCFF0
:00000001FF
