:100000000C9452000C946F000C94CB020C946F0073
:100010000C946F000C946F000C946F000C946F00A4
:100020000C946F000C946F000C946F000C94DB0028
:100030000C946F000C946F000C946F000C946F0084
:100040000C946F000C946F000C94EC020C946F00F5
:100050000C946F000C946F000C946F000C946F0064
:100060000C946F000C946F000A03100316031C031A
:10007000220328032E0334033A0366036603660350
:100080006603660366036603660366036603660328
:1000900040034303460349034C03520359035D03E2
:1000A0006603600311241FBECFEFD8E0DEBFCDBFD3
:1000B00011E0A0E0B1E0EEEFF6E002C005900D9295
:1000C000A830B107D9F721E0A8E0B1E001C01D9246
:1000D000A433B207E1F70E9434020C947D030C9420
:1000E0000000A0E0B7E0BA9FF0011124E45FFE4FEA
:1000F00020813181232B11F0AF5FF5CFA53039F08E
:1001000091838083738362835583448316828A2F0D
:10011000089597E0899FF0011124E45FFE4F11825A
:1001200010821382128215821482168280E0089552
:10013000FF920F931F93CF93DF93C2E1D1E00CE0C6
:1001400011E0F12C8881882389F0D801ED91FC9190
:10015000309761F00995888181508883F801248166
:100160003581232B19F48F2D0E948900F394279653
:10017000095F1F4FF5E0FF12E5CFDF91CF911F918F
:100180000F91FF900895CF93C0E08C2F0E948900BB
:10019000CF5FC530D1F781E792E0909389008093DB
:1001A00088008CE08093810082E080936F00CF9183
:1001B0000895789408951F920F920FB60F9211240C
:1001C0008F939F93AF93BF93EF93FF93ECE0F1E096
:1001D000A2E1B1E080819181892B71F082819381CC
:1001E000009739F48C918F5F8C938481958100976F
:1001F00019F00197938382833796179681E0EF3247
:10020000F80741F7FF91EF91BF91AF919F918F91C7
:100210000F900FBE0F901F90189581E080932F01D3
:100220005A9A20E42A95F1F75A988FEF99EF20E037
:10023000815090402040E1F700C0000080913001E3
:100240009091310190930901809308018FE39CE91B
:100250000197F1F700C0000008951092C50083E3F4
:100260008093C4001092C00086E08093C20088E1B1
:100270008093C10008959091C00095FFFCCF8093BA
:10028000C6000895CF93C82F892F0E943B018C2F61
:10029000CF910C943B018091C00087FFFCCF8091EF
:1002A000C6000895EAE7F0E0808187608083ACE7CC
:1002B000B0E08C9180648C938081806880838081A1
:1002C0008064808308958FEF84B915B85398529A4B
:1002D0001BB88AE08A95F1F700C00895109280005B
:1002E00081E080938100089584E08093690082E03A
:1002F0008DBB089590917C00907F90937C009091AD
:100300007C00982B90937C0080917A00806480938D
:100310007A0080917A0086FDFCCF809178009091E0
:100320007900089580910A0181110FC081E00E9437
:100330007A012091070130E08217930730F0809115
:100340000001813011F480930B01089580910A011E
:1003500081110FC00E947A012091050130910601A0
:100360008217930730F080910001813011F480935F
:100370000B01089581E00E947A010C943B01809169
:1003800007010C943B0180E00E947A010C94420129
:1003900080910501909106010C9442018091030126
:1003A000909104010C94420180910101909102010D
:1003B0000C944201809100010C943B010E944B017E
:1003C00080930701811102C082E001C08CE00C948F
:1003D0003B01CF930E944B01C82F0E944B012C2F51
:1003E00030E0322F2227282B30930601209305017D
:1003F0008CE0CF910C943B01CF930E944B01C82F0E
:100400000E944B012C2F30E0322F2227282B3093D3
:10041000040120930301232B11F482E001C08BE03F
:10042000CF910C943B01CF930E944B01C82F0E94A7
:100430004B012C2F30E0322F2227282B3093020142
:1004400020930101232B11F482E001C08BE0CF91B6
:100450000C943B01289A0895299A089580910801E7
:10046000909109010C9442010E942D010E945201B9
:100470000E9463010E9474010E946E010E94C300E9
:100480000E94D90080910001813019F40E942A0253
:1004900002C00E942C028091C10080688093C1003C
:1004A0004AE050E060E070E082E991E00E94710073
:1004B0004AE050E060E070E086EA91E00E9471005E
:1004C00042E350E060E070E08DE091E00E94710056
:1004D0007894C1E00E94980080910B018823D1F3A9
:1004E00015B88091000181112DC080910301909178
:1004F00004012091010130910201821B930B209194
:1005000008013091090128173907B8F02A9A2FEF0E
:1005100089E698E1215080409040E1F700C000005A
:1005200015B82FEF89E698E1215080409040E1F71F
:1005300000C000000E940D01D8CFC09300010E94AE
:100540002A0226C020910801309109018091010101
:100550009091020128173907B8F02A9A2FEF89E6FF
:1005600098E1215080409040E1F700C0000015B8AC
:100570002FEF89E698E1215080409040E1F700C0DC
:1005800000000E940D01DECF109200010E942C029B
:1005900010920B019FCF1F920F920FB60F92112452
:1005A0008F939F9380912F01813039F410928500B1
:1005B0001092840010922F0108C0809184009091C5
:1005C000850090933101809330019F918F910F901E
:1005D0000FBE0F901F9018951F920F920FB60F929B
:1005E00011242F933F934F935F936F937F938F9338
:1005F0009F93AF93BF93EF93FF930E944B0190E0C3
:10060000FC017597EE31F10508F060C0EC5CFF4F1E
:100610000C9477038CE00E943B010E94BA0156C003
:100620008CE00E943B010E94BF0150C08DE00E94FF
:100630003B010E94C3014AC08DE00E943B010E9421
:10064000C80144C08DE00E943B010E94CE013EC023
:100650008DE00E943B010E94D40138C08CE00E94D2
:100660003B010E94DA0132C08DE00E943B010E94F2
:100670002E022CC08CE00E943B0180910B0124C013
:100680000E94DE0123C00E94E90120C00E94FC01FB
:100690001DC00E9413021AC01092000115B80E94DA
:1006A0002C0211C081E08093000115B80E942A023B
:1006B0000AC081E080930A0106C010920A0103C0BB
:1006C00081E080930B018BE00E943B01FF91EF9151
:1006D000BF91AF919F918F917F916F915F914F915A
:1006E0003F912F910F900FBE0F901F901895EE0F16
:0E06F000FF1F0590F491E02D0994F894FFCFC0
:0806FE0001280090015802AE32
:00000001FF
