:100000000C9434000C9446000C9446000C9446006A
:100010000C9446000C9446000C9446000C94460048
:100020000C9446000C9446000C9446000C94B200CC
:100030000C9446000C9446000C9446000C94460028
:100040000C9446000C9446000C9446000C94460018
:100050000C9446000C9446000C9446000C94460008
:100060000C9446000C94460011241FBECFEFD8E03C
:10007000DEBFCDBF21E0A0E0B1E001C01D92A33200
:10008000B207E1F70E9445010C9461010C94000055
:10009000A0E0B7E0BA9FF0011124E050FF4F2081AB
:1000A0003181232B11F0AF5FF5CFA53039F091836B
:1000B0008083738362835583448316828A2F0895D5
:1000C00097E0899FF0011124E050FF4F11821082C8
:1000D0001382128215821482168280E00895FF92A4
:1000E0000F931F93CF93DF93C6E0D1E000E011E0C0
:1000F000F12C8881882389F0D801ED91FC9130970B
:1001000061F00995888181508883F80124813581C7
:10011000232B19F48F2D0E946000F3942796095F1A
:100120001F4FF5E0FF12E5CFDF91CF911F910F91A7
:10013000FF900895CF93C0E08C2F0E946000CF5FA6
:10014000C530D1F781E792E09093890080938800D1
:100150008CE08093810082E080936F00CF910895BE
:10016000789408951F920F920FB60F9211248F93D7
:100170009F93AF93BF93EF93FF93E0E0F1E0A6E08E
:10018000B1E080819181892B71F082819381009708
:1001900039F48C918F5F8C9384819581009719F04D
:1001A0000197938382833796179681E0E332F807AD
:1001B00041F7FF91EF91BF91AF919F918F910F9078
:1001C0000FBE0F901F9018951092C50083E3809387
:1001D000C4001092C00086E08093C20088E1809342
:1001E000C10008959091C00095FFFCCF8093C60098
:1001F0000895CF93C82F892F0E94F2008C2FCF91A2
:100200000C94F200EAE7F0E0808187608083ACE73D
:10021000B0E08C9180648C93808180688083808141
:1002200080648083089590917C00907F90937C00FF
:1002300090917C00982B90937C0080917A00806450
:1002400080937A0080917A0086FDFCCF80917800BF
:10025000909179000895CF93DF9380E00E9413017D
:10026000EC018FEF0E94F200CE01DF91CF910C9450
:10027000F900CF9381E00E941301C82F8EEF0E94F6
:10028000F2008C2FCF910C94F2000E94E4000E94A7
:1002900002010E949A000E94B00042E350E060E038
:1002A00070E089E391E00E94480044E650E060E09D
:1002B00070E08BE291E00E94480078940E946F0009
:0602C000FDCFF894FFCF12
:00000001FF
